{
  "contractName": "SellStuff",
  "abi": [
    {
      "constant": true,
      "inputs": [],
      "name": "owner",
      "outputs": [
        {
          "name": "",
          "type": "address"
        }
      ],
      "payable": false,
      "stateMutability": "view",
      "type": "function"
    },
    {
      "constant": true,
      "inputs": [
        {
          "name": "",
          "type": "uint256"
        }
      ],
      "name": "articles",
      "outputs": [
        {
          "name": "id",
          "type": "uint256"
        },
        {
          "name": "seller",
          "type": "address"
        },
        {
          "name": "buyer",
          "type": "address"
        },
        {
          "name": "name",
          "type": "string"
        },
        {
          "name": "description",
          "type": "string"
        },
        {
          "name": "price",
          "type": "uint256"
        }
      ],
      "payable": false,
      "stateMutability": "view",
      "type": "function"
    },
    {
      "anonymous": false,
      "inputs": [
        {
          "indexed": true,
          "name": "_id",
          "type": "uint256"
        },
        {
          "indexed": true,
          "name": "_seller",
          "type": "address"
        },
        {
          "indexed": false,
          "name": "_name",
          "type": "string"
        },
        {
          "indexed": false,
          "name": "_description",
          "type": "string"
        },
        {
          "indexed": false,
          "name": "_price",
          "type": "uint256"
        }
      ],
      "name": "LogSellArticle",
      "type": "event"
    },
    {
      "anonymous": false,
      "inputs": [
        {
          "indexed": true,
          "name": "_id",
          "type": "uint256"
        },
        {
          "indexed": true,
          "name": "_seller",
          "type": "address"
        },
        {
          "indexed": true,
          "name": "_buyer",
          "type": "address"
        },
        {
          "indexed": false,
          "name": "_name",
          "type": "string"
        },
        {
          "indexed": false,
          "name": "_price",
          "type": "uint256"
        }
      ],
      "name": "LogBuyArticle",
      "type": "event"
    },
    {
      "constant": false,
      "inputs": [],
      "name": "kill",
      "outputs": [],
      "payable": false,
      "stateMutability": "nonpayable",
      "type": "function"
    },
    {
      "constant": false,
      "inputs": [
        {
          "name": "_name",
          "type": "string"
        },
        {
          "name": "_description",
          "type": "string"
        },
        {
          "name": "_price",
          "type": "uint256"
        }
      ],
      "name": "sellArticle",
      "outputs": [],
      "payable": false,
      "stateMutability": "nonpayable",
      "type": "function"
    },
    {
      "constant": true,
      "inputs": [],
      "name": "getNumberOfArticles",
      "outputs": [
        {
          "name": "",
          "type": "uint256"
        }
      ],
      "payable": false,
      "stateMutability": "view",
      "type": "function"
    },
    {
      "constant": true,
      "inputs": [],
      "name": "getArticlesForSale",
      "outputs": [
        {
          "name": "",
          "type": "uint256[]"
        }
      ],
      "payable": false,
      "stateMutability": "view",
      "type": "function"
    },
    {
      "constant": false,
      "inputs": [
        {
          "name": "_id",
          "type": "uint256"
        }
      ],
      "name": "buyArticle",
      "outputs": [],
      "payable": true,
      "stateMutability": "payable",
      "type": "function"
    }
  ],
  "bytecode": "0x6060604052336000806101000a81548173ffffffffffffffffffffffffffffffffffffffff021916908373ffffffffffffffffffffffffffffffffffffffff160217905550610d06806100536000396000f300606060405260043610610083576000357c0100000000000000000000000000000000000000000000000000000000900463ffffffff1680631cc4baa81461008857806341c0e1b5146100a05780637f6be3da146100b557806389da85d31461011f5780638da5cb5b14610148578063d26095151461019d578063edcfafe614610246575b600080fd5b61009e60048080359060200190919050506103fc565b005b34156100ab57600080fd5b6100b36106e4565b005b34156100c057600080fd5b6100c8610779565b6040518080602001828103825283818151815260200191508051906020019060200280838360005b8381101561010b5780820151818401526020810190506100f0565b505050509050019250505060405180910390f35b341561012a57600080fd5b6101326108e5565b6040518082815260200191505060405180910390f35b341561015357600080fd5b61015b6108ef565b604051808273ffffffffffffffffffffffffffffffffffffffff1673ffffffffffffffffffffffffffffffffffffffff16815260200191505060405180910390f35b34156101a857600080fd5b610244600480803590602001908201803590602001908080601f0160208091040260200160405190810160405280939291908181526020018383808284378201915050505050509190803590602001908201803590602001908080601f01602080910402602001604051908101604052809392919081815260200183838082843782019150505050505091908035906020019091905050610914565b005b341561025157600080fd5b6102676004808035906020019091905050610ba7565b604051808781526020018673ffffffffffffffffffffffffffffffffffffffff1673ffffffffffffffffffffffffffffffffffffffff1681526020018573ffffffffffffffffffffffffffffffffffffffff1673ffffffffffffffffffffffffffffffffffffffff16815260200180602001806020018481526020018381038352868181546001816001161561010002031660029004815260200191508054600181600116156101000203166002900480156103645780601f1061033957610100808354040283529160200191610364565b820191906000526020600020905b81548152906001019060200180831161034757829003601f168201915b50508381038252858181546001816001161561010002031660029004815260200191508054600181600116156101000203166002900480156103e75780601f106103bc576101008083540402835291602001916103e7565b820191906000526020600020905b8154815290600101906020018083116103ca57829003601f168201915b50509850505050505050505060405180910390f35b60008060025411151561040e57600080fd5b60008211801561042057506002548211155b151561042b57600080fd5b60016000838152602001908152602001600020905060008160020160009054906101000a900473ffffffffffffffffffffffffffffffffffffffff1673ffffffffffffffffffffffffffffffffffffffff1614151561048957600080fd5b8060010160009054906101000a900473ffffffffffffffffffffffffffffffffffffffff1673ffffffffffffffffffffffffffffffffffffffff163373ffffffffffffffffffffffffffffffffffffffff16141515156104e857600080fd5b8060050154341415156104fa57600080fd5b338160020160006101000a81548173ffffffffffffffffffffffffffffffffffffffff021916908373ffffffffffffffffffffffffffffffffffffffff1602179055508060010160009054906101000a900473ffffffffffffffffffffffffffffffffffffffff1673ffffffffffffffffffffffffffffffffffffffff166108fc349081150290604051600060405180830381858888f1935050505015156105a157600080fd5b8060020160009054906101000a900473ffffffffffffffffffffffffffffffffffffffff1673ffffffffffffffffffffffffffffffffffffffff168160010160009054906101000a900473ffffffffffffffffffffffffffffffffffffffff1673ffffffffffffffffffffffffffffffffffffffff16837f5d28bc06e6f0c45405abfe77bd77236c767f9bd9d044ae2d954a415a2b4823e084600301856005015460405180806020018381526020018281038252848181546001816001161561010002031660029004815260200191508054600181600116156101000203166002900480156106d15780601f106106a6576101008083540402835291602001916106d1565b820191906000526020600020905b8154815290600101906020018083116106b457829003601f168201915b5050935050505060405180910390a45050565b6000809054906101000a900473ffffffffffffffffffffffffffffffffffffffff1673ffffffffffffffffffffffffffffffffffffffff163373ffffffffffffffffffffffffffffffffffffffff1614151561073f57600080fd5b6000809054906101000a900473ffffffffffffffffffffffffffffffffffffffff1673ffffffffffffffffffffffffffffffffffffffff16ff5b610781610c21565b610789610c21565b600080610794610c21565b60006002546040518059106107a65750595b9080825280602002602001820160405250945060009350600192505b6002548311151561086b5760006001600085815260200190815260200160002060020160009054906101000a900473ffffffffffffffffffffffffffffffffffffffff1673ffffffffffffffffffffffffffffffffffffffff16141561085e576001600084815260200190815260200160002060000154858581518110151561084757fe5b906020019060200201818152505083806001019450505b82806001019350506107c2565b836040518059106108795750595b90808252806020026020018201604052509150600090505b838110156108da5784818151811015156108a757fe5b9060200190602002015182828151811015156108bf57fe5b90602001906020020181815250508080600101915050610891565b819550505050505090565b6000600254905090565b6000809054906101000a900473ffffffffffffffffffffffffffffffffffffffff1681565b60026000815480929190600101919050555060c06040519081016040528060025481526020013373ffffffffffffffffffffffffffffffffffffffff168152602001600073ffffffffffffffffffffffffffffffffffffffff168152602001848152602001838152602001828152506001600060025481526020019081526020016000206000820151816000015560208201518160010160006101000a81548173ffffffffffffffffffffffffffffffffffffffff021916908373ffffffffffffffffffffffffffffffffffffffff16021790555060408201518160020160006101000a81548173ffffffffffffffffffffffffffffffffffffffff021916908373ffffffffffffffffffffffffffffffffffffffff1602179055506060820151816003019080519060200190610a4c929190610c35565b506080820151816004019080519060200190610a69929190610c35565b5060a082015181600501559050503373ffffffffffffffffffffffffffffffffffffffff166002547f59dc4332f9362b57701f94a164dbbf9c87f40a1ae62440b7aa1b8a333664300a858585604051808060200180602001848152602001838103835286818151815260200191508051906020019080838360005b83811015610aff578082015181840152602081019050610ae4565b50505050905090810190601f168015610b2c5780820380516001836020036101000a031916815260200191505b50838103825285818151815260200191508051906020019080838360005b83811015610b65578082015181840152602081019050610b4a565b50505050905090810190601f168015610b925780820380516001836020036101000a031916815260200191505b509550505050505060405180910390a3505050565b60016020528060005260406000206000915090508060000154908060010160009054906101000a900473ffffffffffffffffffffffffffffffffffffffff16908060020160009054906101000a900473ffffffffffffffffffffffffffffffffffffffff1690806003019080600401908060050154905086565b602060405190810160405280600081525090565b828054600181600116156101000203166002900490600052602060002090601f016020900481019282601f10610c7657805160ff1916838001178555610ca4565b82800160010185558215610ca4579182015b82811115610ca3578251825591602001919060010190610c88565b5b509050610cb19190610cb5565b5090565b610cd791905b80821115610cd3576000816000905550600101610cbb565b5090565b905600a165627a7a72305820873f127f6cbb1df3f15920a05af37c769f6fac1167233deda1f9692db1e668a80029",
  "source": "pragma solidity ^0.4.18;\n\nimport \"./Ownable.sol\";\ncontract SellStuff is Ownable{\n\n  //custom types\n\n  struct Article {\n    uint id;\n    address seller;\n    address buyer;\n    string name;\n    string description;\n    uint256 price; //in web 1^-18 ether\n  }\n\n  //state\n  mapping (uint => Article) public articles;\n  uint articleCounter;\n\n\n  //addEventListener\n  event LogSellArticle(\n    uint indexed _id,\n    address indexed _seller,\n    string _name,\n    string _description,\n    uint256 _price\n    );\n\n  event LogBuyArticle(\n    uint indexed _id,\n    address indexed _seller,\n    address indexed _buyer,\n    string _name,\n    uint256 _price\n    );\n\n\n  //kill contact and refund funds to owner\n\n  function kill() public onlyOwner{\n    selfdestruct(owner);\n  }\n\n\n    //indexed means we can filter events per address, like a 'key' in a object\n  function sellArticle(string _name, string _description, uint256 _price) public {\n    articleCounter++;\n    articles[articleCounter] = Article(\n      articleCounter,\n      msg.sender,\n      0x0,\n      _name,\n      _description,\n      _price\n    );\n\n    LogSellArticle(articleCounter, msg.sender, _name, _description, _price);\n  }\n\n  //get number of articles\n  function getNumberOfArticles() public view returns (uint){\n    return articleCounter;\n  }\n\n  // fetch and return all article ids up for grabs\n\n  function getArticlesForSale() public view returns (uint[]){\n    //arrays outside our state need their size predefined\n    //we dont know how many articles are for sale so we start with a array the size of our articleCounter.\n    uint[] memory articleIds = new uint[](articleCounter);\n\n    //but we really wanna find out how many are actually for sale aka no buyer set\n    uint numberOfArticlesForSale = 0;\n\n    //we look through all articles in our mapping and only add to articleIds the ones that can be purchased, but since articleIds is a big array we might end up with a lot of 'null spaces' since its size is predefined and based on the total amount of articles since the contract epoch.\n    for(uint i = 1; i<= articleCounter; i++){\n      if(articles[i].buyer == 0x0){\n        articleIds[numberOfArticlesForSale] = articles[i].id;\n        numberOfArticlesForSale++;\n      }\n    }\n    //so we now know how many contracts can actually be purchased by our control variable numberOfArticlesForSale, we create an array exactly its size (no empty spaces) and iterate through articleIds to fill that new array of ids.\n    uint[] memory forSale = new uint[](numberOfArticlesForSale);\n    for(uint j=0; j<numberOfArticlesForSale; j++){\n      forSale[j] = articleIds[j];\n    }\n    return forSale;\n  }\n  function buyArticle(uint _id) payable public {\n    //check if our contract is initialised\n    require(articleCounter > 0);\n    //check if id is within acceptable range\n    require(_id > 0 && _id <=articleCounter);\n\n    Article storage article = articles[_id];\n\n    //not sold\n    require(article.buyer == 0x0);\n\n    //cant buy your own shit\n    require(msg.sender != article.seller);\n\n    require(msg.value == article.price);\n    //first we set the 'canceling' effect before sending money to avoid double spend\n    article.buyer = msg.sender;\n\n    //transfer amount form the contract to the seller in the total of msg.value\n    article.seller.transfer(msg.value);\n\n    LogBuyArticle(_id, article.seller, article.buyer, article.name, article.price);\n\n  }\n}\n",
  "sourcePath": "/home/kappa/Dev/learn-ethereum/lessons/buysellstuffapp/contracts/SellStuff.sol",
  "compiler": {
    "name": "solc",
    "version": "0.4.19+commit.c4cbbb05.Emscripten.clang"
  },
  "schemaVersion": "2.0.0",
  "updatedAt": "2018-03-22T00:31:25.696Z"
}